:020000040800F2
:100000005807002091010008A31A0008151A0008DB
:10001000A11A00082D060008451D00080000000078
:10002000000000000000000000000000A71A000807
:100030006706000800000000A51A0008A91A0008B9
:10004000AB010008AB010008AB010008AB010008E0
:10005000AB010008AB010008AB010008AB010008D0
:10006000AB010008AB010008AB0100083106000835
:10007000AB010008AB010008AB010008AB010008B0
:10008000AB010008AB010008AB010008AB010008A0
:10009000AB010008AB010008AB010008AB01000890
:1000A000AB010008AB010008AB010008AB01000880
:1000B000AB010008AB010008AB010008AB01000870
:1000C000AB010008AB010008AB010008AB01000860
:1000D000AB010008391D0008AB010008AB010008A6
:1000E000AB010008AB010008AB01000800F002F80A
:1000F00000F03FF80AA090E8000C82448344AAF183
:100100000107DA4501D100F034F8AFF2090EBAE880
:100110000F0013F0010F18BFFB1A43F0010318473B
:10012000501D0000701D0000103A24BF78C878C12F
:10013000FAD8520724BF30C830C144BF04680C60ED
:10014000704700000023002400250026103A28BF35
:1001500078C1FBD8520728BF30C148BF0B60704739
:10016000642900F08380002070471FB51FBD10B5C3
:1001700010BD00F07EF91146FFF7F7FF01F0F4FD26
:1001800000F09CF903B4FFF7F2FF03BC00F0A4F900
:100190000948804709480047FEE7FEE7FEE7FEE71B
:1001A000FEE7FEE7FEE7FEE7FEE7FEE70448054957
:1001B000054A064B70470000251B0008ED000008AB
:1001C0005801002058070020580300205803002041
:1001D0000FB41CB50C0007AA009001D02044401EAB
:1001E000074B7B4469460190069800F022F9002CE9
:1001F00003D06946002000F02FF91CBC5DF814FB09
:100200007D0200002DE9F0410E46044600202062E8
:100210002046E168884730B3252805D0D4E901217C
:100220009047206A401CF2E7E16820460027884793
:10023000050018D0A5F14100192802D820354FF447
:1002400000673246294620462760FFF789FF40B104
:10025000012804D0F61D26F007060836D8E7361D1B
:10026000D6E72846DAE7206ABDE8F0812DE9F041BB
:100270000646002410687529314616A510D0AFF344
:100280000080002802DA404213A507E031688A079F
:1002900001D512A502E0490704D511A5012401E00A
:1002A000AFF3008000210A2206F1240709E0B0FB29
:1002B000F2FCB0FBF2F302FB1C003030785418461D
:1002C000491C0028F3D123462A463046BDE8F041B8
:1002D00000F051B8000000002D0000002B000000CD
:1002E0002000000010B5431C02E010F8011B71B1A2
:1002F0008107FAD14FF0013202C88C1A8C4314EAFC
:10030000C211F9D0C01A0A0603D0C01E10BDC01A0F
:1003100010BD0A0401D0801E10BD0902FCD0401E91
:1003200010BD4FF0000200B51346944696462039A2
:1003300022BFA0E80C50A0E80C50B1F12001BFF49E
:10034000F7AF090728BFA0E80C5048BF0CC05DF804
:1003500004EB890028BF40F8042B08BF704748BF52
:1003600020F8022B11F0804F18BF00F8012B7047C6
:100370007047704770472DE9F0470D469946924601
:10038000044600F124080168880604D5E06921F0DC
:100390001001216000E00120A84201DD471B00E0C0
:1003A0000027A1697A1902EB0900081AA0612078D8
:1003B000C00602D42046AFF30080002608E0D4E94E
:1003C00001211AF806009047206A401C761C206222
:1003D0004E45F4DB2078C0060AD52046AFF30080F6
:1003E00006E0D4E9012130209047206A401C2062B9
:1003F000381EA7F10107F4DC07E0D4E9012118F861
:1004000005009047206A401C2062281EA5F10105C6
:10041000F3DC2046AFF300802078000602D50220EE
:10042000BDE8F0870120FBE701694A1C02610878FA
:10043000704700B58FB0CDE9013100210591054924
:100440007944CDE9031011466846FFF7DBFE0FB093
:1004500000BD0000E5FFFFFF0A6802F8010B0A601B
:100460007047D1E900239A4202D2531C0B601070EE
:100470007047754600F02CF8AE46050069465346B5
:1004800020F00700854618B020B5FFF78FFEBDE8C5
:1004900020404FF000064FF000074FF000084FF0EB
:1004A000000B21F00701AC46ACE8C009ACE8C0097C
:1004B000ACE8C009ACE8C0098D46704710B50446E9
:1004C000AFF300802046BDE81040FFF75BBE0000A0
:1004D00000487047F800002001491820ABBEFEE735
:1004E000260002007047000070B50446006881686D
:1004F000C943C90717D1816821F00101816000F06B
:1005000017FD05460AE000BF00F012FD401B02285F
:1005100004D920688068C043C00706D0206880687E
:10052000C043C007F0D0002070BDA06A40F01000AA
:10053000A062E06A40F00100E062012070BD10B5E9
:100540000146406A826A12F0500F05D0006A026BC1
:10055000BDE8104008461047816A41F4007181628D
:1005600001688968C1F3424107290CD1017B51B967
:10057000816A21F480718162816AC90403D4816A2D
:1005800041F00101816200F0EFF810BD10B5406A42
:10059000816A41F040018162C16A41F00401C16297
:1005A00000F0E9F810BD10B5406A00F0E3F810BDA6
:1005B000F8B500260446009600688168C943C9075B
:1005C0002DD0816841F0010181601648164900680C
:1005D000B0FBF1F000E0401E00900028FBD100F0DD
:1005E000A7FC054616E000BF00F0A2FC401B022855
:1005F00010D920688068C043C0070BD0A06A40F0C3
:100600001000A062E06A40F00100E06284F824601B
:100610000120F8BD20688068C043C007E4D10020F5
:10062000F8BD00001800002040420F00FEE7000067
:10063000014800F06BBA0000B400002030B590F81B
:1006400040500124AC40C56B6C6004686360436833
:10065000102B036803D099600068C26030BD9A60B7
:100660000068C16030BD704772B6FEE7F8B500247F
:10067000009490F824202546012A12D0012280F807
:1006800024204A681F23072A0DD20668776B521E62
:1006900002EB820293409F430B6893401F437763B2
:1006A00019E00220F8BD06680D2A0AD2376BD21F66
:1006B00002EB820293409F430B6893401F433763D2
:1006C00009E0F76A0D3A02EB820293409F430B6800
:1006D00093401F43F7620A68072306680A2A0AD371
:1006E000F7680A3A02EB420293409F438B689340BB
:1006F0001F43F76008E0376902EB420293409F43D3
:100700008B6893401F4337610A68102A01D0112A71
:1007100020D1124B02689A4217D193681B0219D458
:10072000936843F4000393600968102912D10C49BF
:100730000C4A0968B1FBF2F101EB8101490000E0CC
:10074000491E00910029FBD104E0816A41F020019B
:100750008162012480F824502046F8BD0024014025
:100760001800002040420F00014901200870704726
:1007700000000020704770472DE9F0414FF000075E
:1007800004003D467ED0A06A002628B9E66284F8BF
:100790002460204600F07EF82046FFF7A5FEA16AFF
:1007A000C90600D420B1A06A40F01000A06269E040
:1007B000A16A21F4885141F00201A1626268E169F5
:1007C000237B0A4347EA43010A43A1684FF4807739
:1007D000B94209D0012907D05FF0000194F814C094
:1007E000BCF1010F02D00AE03946F7E7F3B1A36A82
:1007F00043F02003A362E36A43F00103E36223684A
:10080000D3F804C02CF4694C4CEA010CC3F804C0C2
:1008100021688B68DFF870C003EA0C0313438B6018
:10082000A168B9420BD0012909D00CE0DFF85CC007
:10083000A3690CEB43330B4343F40061DFE7218AE8
:100840000D05A5F580152168CB6A23F470032B43B1
:10085000CB62216889680E4B1940914208D1E6624B
:10086000A16A21F0020141F00101A162BDE8F0811D
:10087000A06A20F0020040F01000A062E06A40F0A0
:100880000100E0620120F1E7FDF7E1FF00E0FFFF7A
:10089000FE0E1FFF70B586B0002506460095019537
:1008A000029503950068194988422DD11849886935
:1008B00040F400708861886900F4007004908869D1
:1008C00040F0040088618869694600F004000490E3
:1008D0000F200090032001900E4800F039FA0F4CD1
:1008E0000D48C4E900058020C4E9025040002061A1
:1008F0008000C4E905052046E56100F0B1F908B1C2
:10090000FFF7B2FE3462666206B070BD002401409B
:10091000001002400008014008000240B40000201E
:100920002DE9F047894604463B4900683B4F0E1DC0
:100930009046884201D0B84207D1306810F4702F39
:1009400003D001252846BDE8F08794F8240001284B
:100950000CD0012084F824002046FFF729FE050072
:100960004FF0000004D084F82400EBE70220EAE70F
:10097000A16A40F60162914341F48071A16221684D
:10098000B94218D1326812F4702F14D0A16A41F420
:100990008011A1623168490505D5A16A21F4005191
:1009A00041F48051A162A16AC9040AD5E16A21F02B
:1009B0000601E16206E0A26A22F48012A26249689E
:1009C000E9E7E06284F82400216A15488862216A18
:1009D0001448C862216A1448086321686FF0020055
:1009E00008602068816841F4807181602168434615
:1009F0004A464C31206A00F061F920688168C1F3F1
:100A000042410729816803D041F48011816099E750
:100A100041F4A001FAE70000002401400028014051
:100A20003F050008A70500088D05000810B590F8DF
:100A300021100022022905D00421816380F82020A2
:100A4000012010BD01680B6823F00E030B600168E4
:100A50000B6823F001030B6090F84030C46B012158
:100A600001FA03F3636080F8211080F8202010461B
:100A700010BD000010B590F821100024022903D009
:100A80000421816301243DE001680A6822F00E021E
:100A90000A6001680A6822F001020A601A4A0168C5
:100AA000914201D1012121E0174A1432914201D132
:100AB00010211BE0144A2832914201D1891515E01A
:100AC000114A3C32914201D189140FE00E4A503252
:100AD000914202D14FF4803108E00B4A64329142D6
:100AE00002D14FF4801101E04FF08071064A083ABC
:100AF0005160012180F82110002180F82010416B05
:100B000001B18847204610BD080002402DE9F05F82
:100B1000C16B0C6801680B68D0F840C0042202FA6F
:100B20000CF2494DDFF824A1494E4A4FDFF828B1B5
:100B3000DFF828E122422CD05A072AD50A6892060B
:100B400003D40A6822F004020A600168A94201D1B4
:100B5000042219E0514501D1402215E0B14202D1F1
:100B60004FF4806210E0B94202D14FF480420BE0B2
:100B7000594502D14FF4802206E0714502D14FF46D
:100B8000800201E04FF080622F4908394A60C16A53
:100B90003BE04FF0020808FA0CF818EA040F4FF097
:100BA00000094FF0010235D05FEA837832D50B6837
:100BB0009B0605D40B6823F00A030B6080F8212004
:100BC0000168A94201D1022219E0514501D1202238
:100BD00015E0B14202D14FF4007210E0B94202D1E7
:100BE0004FF400520BE0594502D14FF4003206E0B9
:100BF000714502D14FF4001201E04FF0007212492A
:100C000008394A6080F82090816A00291AD0BDE82E
:100C1000F05F0847082505FA0CF5254212D01B079E
:100C200010D50B6823F00E030B6090F84010C36BD7
:100C300002FA01F15960826380F8212080F8209047
:100C4000016BE2E7BDE8F09F080002401C00024093
:100C50003000024044000240580002406C00024054
:100C600030B528B308C8134914221944B1FBF2F176
:100C70008900C16310498163022141771A6843F6F4
:100C8000F0718A43D0E900142143D0E902452C4396
:100C90002143046921434469214384692143114369
:100CA000196000214163012242770177084630BD77
:100CB000012030BDF8FFFDBF0000024070B50446C2
:100CC00090F82000002501280CD0012084F8200095
:100CD00094F821600020012E06D084F8200002251F
:100CE000284670BD022070BD022684F82160A063F2
:100CF0002068066826F0010606602046FFF79EFC85
:100D0000E06A00282068016802D041F00E0106E088
:100D100021F0040101602068016841F00A010160CE
:100D20002068016841F001010160D9E770B504460F
:100D300000F0FEF80546601C02D004480078044428
:100D400000F0F6F8401BA042FAD370BD0C00002062
:100D50002DE9F84FDFF8B891002409F1040A0AF1EF
:100D6000040B23460F270BF1040EC9E00125A54013
:100D70002A40AA427DD1674ED1F804C0ACEB0608E8
:100D8000B44532D014DCBCF1030F3AD009DCBCF11D
:100D9000000F2AD0BCF1010F1CD0BCF1020F31D1E1
:100DA0001DE0BCF1110F17D0BCF1120F2AD119E0D0
:100DB000B8F5881F19D006DCB8F5803F15D0B8F516
:100DC000801F1FD111E0B8F5001F0ED0B8F5041F29
:100DD00018D10AE0CB6815E0CB681B1D12E0CB6888
:100DE00008330FE0CB680C330CE08B682BB1012B80
:100DF0004FF0080303D0456104E0042302E00561DD
:100E000000E00023FF2A01D8064601E000F10406B5
:100E10004FEA840501D9A5F12005D6F8008007FA2C
:100E200005FC28EA0C0803FA05F548EA0508C6F8A7
:100E300000804D68ED0062D5374DAE6946F0010681
:100E4000AE61AD6924F0030605F001050095334D50
:100E500006EB050CDCF80850A607360F07FA06F873
:100E600025EA0805DFF8B880404503D14FF00008B7
:100E700017E044E0DFF8AC80404502D14FF00108B4
:100E80000FE0DFF8A480404502D14FF0020808E0EF
:100E9000DFF89880404502D14FF0030801E04FF0A1
:100EA000040808FA06F848EA0508CCF808804D68F6
:100EB000D9F80060ED034D4601D5164300E0964396
:100EC0002E604D68DAF80060AD03554601D5164333
:100ED00000E096432E604D68DBF80060ED025D4651
:100EE00001D5164300E096432E604D68DEF80060A1
:100EF000AD02754601D5164300E096432E60641C92
:100F00000D682A46E5407FF431AFBDE8F88F000058
:100F100000040140000011100010024000000140D8
:100F200000080140000C0140001001400014014085
:100F300001488068704700000C000020024881686A
:100F400002781144816070470C000020074810B5FA
:100F5000016841F010010160032000F06DF80F20DE
:100F600000F006F800F024F8002010BD0020024038
:100F700070B50D4D04464FF47A712878B1FBF0F04E
:100F80000A490968B1FBF0F000F05AFB48B9102C8F
:100F900007D200222146501E00F02EF800206C607F
:100FA00070BD012070BD00000C0000201800002062
:100FB000094808B5816941F001018161816901F049
:100FC00001010091C16941F08051C161C06900F027
:100FD0008050009008BD000000100240002809DB8E
:100FE00000F01F02012191404009800000F1E02043
:100FF000C0F8001170470000F0B40E4B1B680C469F
:10100000C3F30223C3F10705042D00D90425191DDC
:10101000072901D2002300E0DB1E012606FA05F1B4
:10102000491E214099409E40761E16403143F0BC37
:1010300000F089BE0CED00E0064900F007020868E8
:101040004FF6FF03184040EA0220034A10430860AD
:10105000704700000CED00E00000FA052DE9F843B0
:1010600005460078354CC00754D0E0690026C00022
:1010700008D4E06940F08050E061E069012600F0AA
:10108000805000902E480168C90512D4016880463E
:1010900041F480710160FFF74BFF074605E000BF98
:1010A000FFF746FFC01B642823D8D8F80000C0050E
:1010B000F6D5206A10F4407021D0A98801F440715F
:1010C00081421CD0206A1F49012220F440700A602E
:1010D00000220A602062C00711D0FFF729FF0746EF
:1010E00041F2883808E000BFFFF722FFC11B4145ED
:1010F00002D90320BDE8F883206A8007F4D5206A6E
:10110000696820F44070084320621EB1E06920F055
:101110008050E0612878800705D56068A96820F4D0
:101120004040084360602878C00605D56068E968DB
:1011300020F48000084360600020DBE700100240DC
:1011400000700040400442422DE9F0470F46050080
:1011500061D0434E306800F00700B84209D23068D1
:1011600020F0070038433060306800F00700B842D4
:1011700051D128683B4C810712D5400703D56068E0
:1011800040F4E06060602878000703D5606840F4B0
:10119000605060606068A96820F0F00008436060FB
:1011A0002878C00728D06868012810D02168022854
:1011B00010D0890700292EDA616821F0030101436C
:1011C0006160FFF7B5FE804641F288390DE0216885
:1011D0008903EFE78901EDE7FFF7AAFEA0EB08011D
:1011E000494502D90320BDE8F0876068696800F0CE
:1011F0000C00B0EB810FEFD1306800F00700B8426F
:101200000BD9306820F0070038433060306800F0B8
:101210000700B84201D00120E5E72878400705D54E
:101220006068E96820F4E06008436060287800079F
:1012300006D56068296920F4605040EAC10060600A
:1012400000F038F86168084AC1F30311515CC840E6
:101250000649086006480068FFF78AFE0020C2E7DA
:101260000020024000100240581E00081800002014
:10127000100000200448054900684968044AC1F389
:101280000221515CC8407047180000200010024045
:10129000681E00080448054900684968044AC1F30B
:1012A000C221515CC8407047180000200010024065
:1012B000681E000812A185B00FC98DE80F0014A0A8
:1012C000144A006804905168134801F00C03042B81
:1012D00010D0082B0ED1C1F38343C9031DF80300BE
:1012E0000AD5516804AAC1F34041515C0A4A5043EF
:1012F000B0FBF1F005B0704708494843FAE7000039
:1013000002030405060708090A0B0C0D0E0F101046
:10131000010200000010024000127A0000093D00A6
:101320002DE9F84F040070D02078C04DC00749D097
:101330006868C0F38100012807D06868C0F38100A5
:10134000022809D16868C00306D52868800339D50A
:1013500060680028E7D035E06068B0F5803F0BD0CA
:1013600010B1B0F5A02F11D0286820F4803028608B
:10137000286820F4802002E0286840F4803028604B
:10138000606890B1FFF7D4FD06460AE0286840F493
:1013900080202860F0E700BFFFF7CAFD801B6428AB
:1013A00073D828688003F7D50CE0FFF7C1FD064627
:1013B00005E000BFFFF7BCFD801B6428F0D828685B
:1013C0008003F7D420789A4E80074FF001094FF040
:1013D000000839D5686810F00C0F07D06868C0F3B2
:1013E0008100022809D16868C00306D428688007F4
:1013F00014D52069012808D110E02069B0B1C6F8E1
:101400000090FFF795FD074605E00AE1FFF790FD24
:10141000C01B0228C4D828688007F7D528686169EE
:1014200020F0F80040EAC10028600DE0C6F8008016
:10143000FFF77EFD074604E0FFF77AFDC01B022898
:1014400023D828688007F7D4207800072CD579485E
:10145000A169D9B1C0F80090FFF76AFD074604E022
:10146000FFF766FDC01B02280FD8686A8007F7D512
:1014700071484FF4FA510068B0FBF1F0009000BFE2
:101480000098411E0091FAD20EE080E0C0F8008082
:10149000FFF74EFD074604E0FFF74AFDC01B022898
:1014A00075D8686A8007F7D42078400760D5E86966
:1014B0000027C00008D4E86940F08050E861E8697E
:1014C000012700F0805000905C480168C90513D4E2
:1014D0000168834641F480710160FFF729FD82466F
:1014E00006E000BFFFF724FDA0EB0A0064284ED8F9
:1014F000DBF80000C005F5D5E06801280AD008B186
:10150000052813D0286A20F001002862286A20F0FC
:10151000040002E0286A40F001002862E06841F21D
:10152000883B98B1FFF704FD82460BE0286A40F043
:1015300004002862EEE700BFFFF7FAFCA0EB0A0107
:1015400059455AD8286A8007F6D50CE0FFF7F0FC19
:10155000824605E0FFF7ECFCA0EB0A0159454CD8A8
:10156000286A8007F6D41FB1E86920F08050E8614E
:10157000E06988B36968C1F38101022944D0022877
:10158000C6F8608004D0FFF7D3FC044638E034E0AE
:10159000FFF7CEFC074604E0FFF7CAFCC01B022899
:1015A0002BD828688001F7D4206AB0F5803F05D198
:1015B0006868A16820F4003008436860D4E9080135
:1015C0000843696821F4741108436860C6F86090A4
:1015D000FFF7AEFC044606E025E000BFFFF7A8FCDD
:1015E000001B022809D828688001F7D51BE000BF3E
:1015F000FFF79EFC001B022802D90320BDE8F88FEC
:1016000028688001F4D40EE00128F7D06868226AC7
:1016100000F48031914204D1616A00F47010884274
:1016200001D00120EAE70020E8E7000000100240B6
:101630000000424280044242180000200070004036
:1016400010B5401EB0F1807F01D3012010BD4FF0D6
:10165000E02460610F21601700F075FB0020A0619D
:1016600007202061002010BD70477047F8B5026860
:1016700004461068D168536910F00F0F4FF0000551
:1016800053D003F0010601F4907737435FD0C207CF
:1016900005D0CA0503D5226C42F00102226442073C
:1016A00005D5DA0703D0226C42F0020222648207D9
:1016B00005D5DA0703D0226C42F004022264020747
:1016C00007D501F02002324303D0226C42F0080219
:1016D0002264226C002A34D0800604D5880602D504
:1016E000204600F040FA20684069216CC0F3801069
:1016F000090700D430B3204600F01DFA2068416984
:1017000049061BD5416921F040014161A06BA8B198
:1017100058494163A06BFFF7ADF9002811D0A06BC9
:10172000416B01B0BDE8F040084783060FD58B063A
:101730000DD52046BDE8F84000F015BA2046FFF769
:1017400094FFF8BD2046FFF790FF2564F8BD266B97
:101750002023012E52D1C60650D5CE064ED5106894
:1017600050680090506940062AD5A16B086840680F
:101770000004000CEAD0A68D8642E7D9E08588698E
:10178000202818D0D06820F48070D060206841698B
:1017900021F0010141612068416921F0400141616E
:1017A00084F83E3025632068C16821F01001C160D3
:1017B000A06BFFF73BF9A08DE18D401A81B219E0D3
:1017C000A08DE18D401A81B2E08D0028BED00029A5
:1017D000BCD0D06820F49070D0602068426922F0BC
:1017E0000102426184F83E3025632068C26822F01D
:1017F0001002C2602046FFF737FFF8BD05062BD563
:101800000D0629D594F83D002128F6D1A068B0F541
:10181000805F01D12069B0B1206A411C216221683A
:1018200000784860E08C401E0004000CE084E4D1A5
:101830002068C16821F08001C1602068C16841F062
:101840004001C160F8BD206A0088C0F30800506004
:10185000206A801C2062E5E74006F3D54806F1D5F2
:10186000D168204621F04001D16084F83D3000F07D
:10187000D0F8F8BD271B000870B5040004D094F818
:101880003D00002510B106E0012070BD84F83C50F9
:10189000204600F023F8242084F83D002068C16829
:1018A00021F40051C160204600F0B8F920680169B8
:1018B00021F4904101612068416921F02A014161D0
:1018C0002068C16841F40051C1602564202084F87B
:1018D0003D0084F83E00002070BD000030B585B0AA
:1018E00000240094019402940394006818498842EB
:1018F0002CD11848816941F480418161816901F4EA
:1019000080410491816941F0040181618069124D37
:1019100000F0040004904FF4007000900220019049
:101920000320039069462846FFF712FA2815CDE9EF
:101930000004694628460294FFF70AFA002211467D
:101940002520FFF759FB2520FFF748FB05B030BDE8
:1019500000380140001002400008014070470000BC
:101960002DE9F843044690F83D001F4616460D4603
:1019700020284CD1C5B1BEB194F83C00012846D016
:10198000012084F83C004FF00008C4F8408021207A
:1019900084F83D00FFF7CCFAA6848146E684A0686F
:1019A000B0F5805F03D004E00120BDE8F883206932
:1019B00028B12E465FF0000584F83C800EE000263A
:1019C000FAE78021204600F085F9A0B9AEB116F8FB
:1019D000010B21684860E08C401EE084E08C4B469F
:1019E0004FF0000200970028EBD14FF04001204655
:1019F00000F070F930B10320D7E735F8020BC0F3DF
:101A00000800E6E7202084F83D000020CDE7022012
:101A1000CBE77047FEE70000FEB500241F480094A6
:101A200001941D49029401608915816004730125A8
:101A30000575042606614FF460214460C0E9065133
:101A4000FEF79AFE08B172B6FEE7CDE90045694699
:101A500012480294FEF70AFE08B172B6FEE70220B1
:101A6000019069460D48FEF701FE08B172B6FEE727
:101A70000320019069460948FEF7F8FD08B172B6E7
:101A8000FEE7694605480196FEF7F0FD002801D003
:101A900072B6FEE7FEBD00000024014040000020B9
:101AA000FEE7FEE770477047FFF748BA30B593B0DE
:101AB00028216846FEF735FC14210AA8FEF731FC00
:101AC000002501200F9510951195010412958DE8C0
:101AD000230004904FF4E010CDE90810022407948D
:101AE0006846FFF71DFC08B172B6FEE70AA90F2091
:101AF00081E831004FF48060CDE90D0502210AA88C
:101B0000FFF722FB08B172B6FEE74FF400401190D8
:101B10000F940FA8FFF7A2FA002801D072B6FEE7D3
:101B200013B030BD704710B5406A0021C185C18433
:101B3000FFF79BFD10BD0168CA6822F49072CA606D
:101B400001684A6922F001024A61016B012904D14E
:101B50000168CA6822F01002CA60202180F83E1095
:101B600000210163704708B590F83E10222901D08A
:101B7000022008BD82684FF480539A4201D1016966
:101B800021B1816A9A421BD04AB10AE00268816A97
:101B90005268C2F308020A80816A891C08E002695F
:101BA00072B10268526802F07F020A70816A491CB1
:101BB0008162C18D491E0904090CC18503D019E059
:101BC00002685268F1E70168CA6822F02002CA6020
:101BD0000168CA6822F48072CA6001684A6922F00A
:101BE00001024A61202180F83E10016B012903D0D7
:101BF000FFF7B4FE002008BD002101630168CA6838
:101C000022F01002CA6001680A68D20602D50A688A
:101C100049680091818DFFF727FDEBE770B5044619
:101C200000680169E26821F44051114301612169B2
:101C3000A0680843616908432168CA6841F20C63DF
:101C40009A430243CA6020684169A26921F4407145
:101C5000114341611E492068884202D1FFF71AFBF7
:101C600001E0FFF707FB00EBC00101EB0012606829
:101C700064218000B2FBF0F3B3FBF1F36FF01806C0
:101C80007343B2FBF0F5B2FBF0F605EB83053223AC
:101C900003EB0515B5FBF1F5B6FBF1F605F0F00524
:101CA00005EB0615B2FBF0F6B2FBF0F0B0FBF1F07D
:101CB0006FF01802504306EB800003EB0010B0FBFE
:101CC000F1F0216800F00F002844886070BD00002A
:101CD000003801402DE9F041984617460E4604466B
:101CE000069D1DE0681C1BD02DB1FFF721F9A0EB6C
:101CF0000800A84214D92068C16821F4D071C160DD
:101D00002068416921F001014161202084F83D00F3
:101D100084F83E00002084F83C000320BDE8F081F8
:101D20002068006836EA000004D00020B842D9D00C
:101D30000020F3E70120F9E70148FFF797BC000016
:101D400070000020FEE70907090E002804DB00F1FF
:101D5000E02080F80014704700F00F0000F1E02050
:101D600080F8141D704700000EB5FFF7EFF8FFF77D
:101D70009DFE2D48816941F020018161816901F05A
:101D800020010091816941F004018161816901F0C4
:101D900004010091416941F0010141614069002263
:101DA00000F00100009011460B20FFF725F90B20F1
:101DB000FFF714F91E481D490C2201604FF4E13170
:101DC000416000218160C160C0E904128161C1618C
:101DD000FFF752FD08B172B6FEE7FFF71DFE154C86
:101DE0004FF0FF351248042212493038FEF798FDB3
:101DF000E288A18860888DE8070023880C480EA23D
:101E000022215438FEF7E4F909485438FEF76AFAFB
:101E1000074982B22B4654390548FFF7A1FD6420DB
:101E2000FEF784FFDEE700000010024000380140AA
:101E300070000020020000204348303A25642C4303
:101E400048313A25642C4348323A25642C434833C0
:101E50003A25640A0D0000000000000000000000A8
:101E60000102030406070809000000000102030440
:101E7000901E0008000000201C000000280100083F
:101E8000AC1E00081C0000203C07000044010008B4
:101E90000000000000000000000000000100000041
:0C1EA00010000000000000000024F4000E
:04000005080000ED02
:00000001FF
